:020000040000FA
:100000000C945D000C9485000C9485000C94850084
:100010000C9485000C9485000C94170D0C948500AD
:100020000C9485000C9485000C9485000C9485003C
:100030000C9485000C9485000C9485000C9485002C
:100040000C948C020C9485000C94FC020C94D60247
:100050000C9485000C9485000C9485000C9485000C
:100060000C9485000C94850000000008000201003B
:100070000003040700000000000000000000000072
:10008000250028002B0000000000240027002A0083
:10009000040404040404040402020202020203032E
:1000A0000303030301020408102040800102040836
:1000B0001020010204081020370E11241FBECFEFBC
:1000C000D8E0DEBFCDBF11E0A0E0B1E0E2E4FFE1A7
:1000D00002C005900D92A235B107D9F722E0A2E542
:1000E000B1E001C01D92A738B207E1F710E0CDE5FD
:1000F000D0E004C02197FE010E94890FCC35D107C2
:10010000C9F70E941A0D0C949F0F0C94000090E008
:10011000FC01EC55FF4F249180579F4FFC018491C7
:10012000882399F090E0880F991FFC01EA57FF4F50
:10013000A591B491FC01E458FF4F859194918FB73C
:10014000F894EC91E22BEC938FBF089590E0FC01C2
:10015000E859FF4F2491FC01EC55FF4F3491FC010D
:10016000E057FF4FE491EE23C9F0222339F023300A
:1001700001F1A8F4213019F1223029F1F0E0EE0F5D
:10018000FF1FE458FF4FA591B4918FB7F894EC91FD
:10019000611126C030953E233C938FBF08952730D0
:1001A000A9F02830C9F0243049F7809180008F7D74
:1001B00003C0809180008F7780938000DFCF84B56B
:1001C0008F7784BDDBCF84B58F7DFBCF8091B0006E
:1001D0008F778093B000D2CF8091B0008F7DF9CF20
:1001E0003E2BDACFAF92BF92CF92DF92EF92FF9287
:1001F0000F931F93CF93DF936C017B018B01040F4F
:10020000151FEB015E01AE18BF08C017D10759F0EA
:100210006991D601ED91FC910190F081E02DC6012C
:100220000995892B79F7C501DF91CF911F910F9126
:10023000FF90EF90DF90CF90BF90AF900895FC01BA
:10024000538D448D252F30E0842F90E0821B930B3B
:10025000541710F0CF96089501970895FC01918DE1
:10026000828D981761F0A28DAE0FBF2FB11D5D96E4
:100270008C91928D9F5F9F73928F90E008958FEF86
:100280009FEF0895FC01918D828D981731F0828D3A
:10029000E80FF11D858D90E008958FEF9FEF089591
:1002A000FC01918D228D892F90E0805C9F4F821BF5
:1002B00091098F739927089584E691E00E94500177
:1002C00021E0892B09F420E0822F08950E945C012F
:1002D00081110C940000089580E090E0892B11F0CA
:1002E0000C9466010895FC01A48DA80FB92FB11DCF
:1002F000A35ABF4F2C91848D90E001968F7399275C
:10030000848FA689B7892C93A089B1898C91837039
:1003100080648C93938D848D981306C00288F38932
:10032000E02D80818F7D80830895EF92FF920F935F
:100330001F93CF93DF93EC0181E0888F9B8D8C8D91
:1003400098131AC0E889F989808185FF15C09FB785
:10035000F894EE89FF896083E889F9898081837048
:10036000806480839FBF81E090E0DF91CF911F91F7
:100370000F91FF90EF900895F62E0B8D10E00F5F18
:100380001F4F0F731127E02E8C8D8E110CC00FB6EE
:1003900007FCFACFE889F989808185FFF5CFCE0186
:1003A0000E947301F1CFEB8DEC0FFD2FF11DE35A8D
:1003B000FF4FF0829FB7F8940B8FEA89FB89808109
:1003C0008062CFCFCF93DF93EC01888D8823B9F083
:1003D000AA89BB89E889F9898C9185FD03C0808150
:1003E00086FD0DC00FB607FCF7CF8C9185FFF2CFCD
:1003F000808185FFEDCFCE010E947301E9CFDF91AF
:10040000CF91089561E083E00E94A6008FE190E023
:100410000E944C0860E083E00E94A6008FE190E01B
:100420000E944C08EFCF61E08DE00E94A6008EE3B1
:1004300090E00E944C0860E08DE00E94A6008EE3F0
:1004400090E00E944C08EFCF0F931F93E4E6F1E099
:10045000A089B18982E08C93A485B5851C92A6857C
:10046000B7858FEC8C93108EA489B58986E08C9328
:10047000A289B3898C9180618C93A289B3898C9174
:1004800088608C93A289B3898C9180688C93028850
:10049000F389E02D80818F7D80838DE00E9487002D
:1004A00083E00E9487000AE511E022E040E850E086
:1004B00069E171E083E192E00E94F20B08E511E04E
:1004C00022E040E850E060E271E082E092E00E94C9
:1004D000F20B06E511E022E040E850E067E271E04F
:1004E00087E792E00E94F20B1F910F91089542E17D
:1004F00050E06EE271E084E691E00E94F20042E09A
:1005000050E061E471E084E691E00E94F2008BEB40
:1005100090E00E944C08EBCF1F920F920FB60F9203
:1005200011242F933F938F939F93AF93BF93809109
:10053000260290912702A0912802B09129023091C1
:10054000250223E0230F2D3758F50196A11DB11D7B
:10055000209325028093260290932702A0932802DD
:10056000B09329028091210290912202A09123024E
:10057000B09124020196A11DB11D80932102909398
:100580002202A0932302B0932402BF91AF919F91C6
:100590008F913F912F910F900FBE0F901F90189544
:1005A00026E8230F0296A11DB11DD2CF1F920F92F4
:1005B0000FB60F9211242F933F934F935F936F9336
:1005C0007F938F939F93AF93BF93EF93FF9384E6B3
:1005D00091E00E947301FF91EF91BF91AF919F91C4
:1005E0008F917F916F915F914F913F912F910F90DC
:1005F0000FBE0F901F9018951F920F920FB60F927B
:1006000011242F938F939F93EF93FF93E0917401A5
:10061000F09175018081E0917A01F0917B0182FD7A
:100620001BC0908180917D018F5F8F7320917E012F
:10063000821741F0E0917D01F0E0EC59FE4F958F7B
:1006400080937D01FF91EF919F918F912F910F905A
:100650000FBE0F901F9018958081F4CFE0912C026F
:10066000F0912D028081811107C08FEF9FEF909351
:100670001E0280931D020895E0912C02F0912D023C
:100680000580F681E02D80819181F1CFCF93DF93BA
:10069000DC011596ED91FC910680F781E02DA4898F
:1006A000B5898685978520893189EC013D832C8326
:1006B000C089D1899B838A83CF010C9611962D9195
:1006C0003C9112972817390721F41296DC93CE93A8
:1006D0001197158A148A2C9121502C9320915F0137
:1006E000211157C0A285B3858481958126813781E8
:1006F000EC013D832C83C681D7819B838A83CF0104
:10070000029611962D913C9112972817390721F4E2
:100710001296DC93CE931197138612862C9121505A
:100720002C93C68920917F022C1710F4C0937F026E
:1007300029E02C9FE0011124C55ADD4F0980DA81A0
:10074000C02DD583C4834C815D8157834683AC81A2
:10075000BD8113969C938E9312979D838C83A6895B
:10076000A29FD0011124A55ABD4FB387A2878C91B7
:100770008F5F8C93A0915201B09153019689569648
:100780008C91891730F581E080935E01DF91CF91E4
:100790000895A0914102B0914202B787A6871496AE
:1007A0002D913C911597318B208B1496CD91DC9136
:1007B00015979B838A8315969C938E93149780E458
:1007C00092E0958B848B809140028F5F80934002F2
:1007D000D1CF80E0DBCF0FB6F8940F9280911B024F
:1007E00090911C020F900FBE089580915F018F5F62
:1007F00080935F0108950FB6F8940F92FC01928DDB
:100800000F900FBE81E0911180E00895EF92FF926A
:100810000F931F93CF93DF93EC010FB6F8940F92D1
:100820001E8D7C0181E1E80EF11C01E01116D4F06F
:100830008FEF8E8F0F900FBE0FB6F8940F921D8D15
:100840007E0188E0E80EF11C01E01116B4F08FEF94
:100850008D8F0F900FBEDF91CF911F910F91FF9061
:10086000EF9008958989882319F3C7010E944603F0
:10087000811100935E011150D9CF8885882339F307
:10088000C7010E944603811100935E011150DDCF24
:10089000CF93DF93FC01A085B18582819381248170
:1008A0003581EC013D832C83C481D5819B838A8370
:1008B00011968D919C9112978E179F0721F4129695
:1008C000DC93CE931197118610868C9181508C9376
:1008D0008C91DF91CF9108950F931F93CF93DF9366
:1008E0008C01FB0180819181D80113968F3F98077D
:1008F000F1F4E801AF81B88512968D919C91139720
:1009000093838283EC01FD83EC83B583A4831396E8
:10091000FC93EE93129711870087F80180818F5F17
:100920008083DF91CF911F910F910895D901129685
:100930002D913C911397E9014881598184179507BE
:10094000A8F7DACFFC01738362839187808746170B
:10095000570790F0421B530B84859585481759071C
:10096000C8F4BF016E5F7F4F809101029091020237
:100970000E946C0480E008954217530718F4621730
:10098000730740F4BF016E5F7F4F80910302909127
:100990000402EECF81E00895EF92FF920F931F9330
:1009A000CF93DF93EC018B017A016C857D85600F1D
:1009B000711F9801A701CE010E94A204811107C0F6
:1009C000DF91CF911F910F91FF90EF9008958C854B
:1009D0009D85080F191FE889F989CE010995E5CF92
:1009E000EF92FF920F931F93CF93DF938C017B01C4
:1009F000E0910302F09104020580F681E02DC681AA
:100A0000D781CE0102960E9448048A8982FF0FC0D6
:100A1000A701B801CE010E94CC04E889F989CE0172
:100A2000DF91CF911F910F91FF90EF9009948E7FEE
:100A30008A8BF3CFE0910302F0910402808181114F
:100A40000DC0809101029091020290930402809364
:100A50000302F0930202E093010208950580F681FB
:100A6000E02D6FEF7FEF808191810E94F004E2CF53
:100A7000FF920F931F93CF93DF93EC01F62E00911B
:100A80001B0210911C028091520190915301029619
:100A90000E944804CF3FDC07E9F5FF20D9F1E0913F
:100AA0002F02F0913002A0915201B091530115969E
:100AB000FC93EE931497A0915201B091530184815D
:100AC000958117969C938E931697809152019091E1
:100AD0005301A481B581029613969C938E9312972D
:100AE0008091520190915301029695838483E09105
:100AF0005201F09153018EE292E0938782878091B8
:100B00002E028F5F80932E02DF91CF911F910F9164
:100B1000FF900895C00FD11FE0915201F091530151
:100B2000D383C2836091520170915301C017D107E2
:100B300068F480912A0290912B026E5F7F4FDF91C3
:100B4000CF911F910F91FF900C946C0480912C0217
:100B500090912D026E5F7F4F0E946C0480911D0268
:100B600090911E02C817D90778F6D0931E02C09341
:100B70001D02CACFFC010396928381832FEF3FEFC2
:100B80003483238396838583908787831082089597
:100B90000F920FB6F8940F921F9211242F923F924A
:100BA0004F925F926F927F928F929F92AF92BF927D
:100BB000CF92DF92EF92FF920F931F932F933F9369
:100BC0004F935F936F937F938F939F93AF93BF9355
:100BD000CF93DF93EF93FF93A0915201B091530114
:100BE0000DB60D920EB60D9280915F01882321F013
:100BF00081E080935E015DC010925E01A091520180
:100C0000B0915301E0915201F09153012D913C912B
:100C10008789908D82179307A8F080915201909157
:100C200053018091520190915301259A2D9A2FEFF3
:100C300087EA91E6215080409040E1F700C0000033
:100C40001D9AF5CF20917F0289E001C02150422FEB
:100C500050E0849FF001859FF00D1124E55AFD4F6F
:100C60009081992399F3A181B28112966D917C9123
:100C700072836183289FC0011124825A9D4F681797
:100C8000790721F4858196819283818389E0849F0D
:100C9000F001859FF00D1124E55AFD4F0180F2818E
:100CA000E02D868197819093530180935201209388
:100CB0007F02A0915201B0915301CD91CDBFDD9142
:100CC000DEBFFF91EF91DF91CF91BF91AF919F91E7
:100CD0008F917F916F915F914F913F912F911F91D4
:100CE0000F91FF90EF90DF90CF90BF90AF909F90CB
:100CF0008F907F906F905F904F903F902F901F90BC
:100D00000F900FBE0F9008958F929F92BF92CF9237
:100D1000DF92EF92FF920F931F93CF93DF930FB663
:100D2000F8940F9280915F01815080935F018091D0
:100D30005F01882379F080E00F900FBEDF91CF91A3
:100D40001F910F91FF90EF90DF90CF90BF909F90F9
:100D50008F90089580918202882369F3E090450284
:100D6000F0904602F0E0E0E039E041E0809140029E
:100D700081115EC0EF2B11F00E942E03E0905C0108
:100D8000F0905D01E114F10409F47DC189E0D82EF1
:100D9000CC24C3940FEF1FEF80915F01811161C1DB
:100DA000C0911B02D0911C024E018FEF881A980A45
:100DB00090921C0280921B0281149104B9F48091DC
:100DC0002C0290912D0220912A0230912B02309317
:100DD0002D0220932C0290932B0280932A02809163
:100DE00063018F5F809363010E942E0380911D0237
:100DF00090911E02B12C8816990608F026C1E09148
:100E00005201F0915301E689DE9EF0011124E55A6A
:100E1000FD4F8081823010F0BB24B39480915E013D
:100E2000811103C0BB2009F425C1C0925E0122C11B
:100E3000D7011696ED91FC91A489B58966857785D1
:100E400080899189EB019D838C8380899189EC0154
:100E50007B836A83BF01645F7F4F11960D911C9164
:100E600012970617170721F412969C938E931197E9
:100E7000158A148A8C9181508C93A285B3858481C4
:100E8000958166817781EC017D836C8366817781B2
:100E9000EB019B838A83CF01029611960D911C91E1
:100EA00012970817190721F412967C936E931197E5
:100EB000138612862C9121502C93A68920917F02B3
:100EC0002A1710F4A0937F023A9FD0011124A55A4B
:100ED000BD4F11960D90BC91A02DB583A48314969F
:100EE0006D917C9115977783668314966D917C91B3
:100EF0001597EB019B838A8315969C938E93149789
:100F00009689939FD0011124A55ABD4FB387A2871C
:100F10008C918F5F8C93A0915201B09153015696A2
:100F20008C91891708F022CF40935E011FCFE0918A
:100F30002C02F0912D020580F681E02D0680F781CC
:100F4000E02D828193818816990628F490931E02E1
:100F500080931D0254CFC285D385848195812681DB
:100F60003781DC0115963C932E93149726813781A7
:100F7000D90113969C938E931297CF0102964981C3
:100F80005A814817590711F43A8329831386128628
:100F9000288121502883A489B5891097F9F02685E6
:100FA000378540895189E9015D834C8340895189A6
:100FB000EA013B832A8311966D917C9112979F01E0
:100FC000245F3F4F6217730721F412965C934E9390
:100FD0001197158A148A2C9121502C93A68920915F
:100FE0007F022A1710F4A0937F02DA9ED001112409
:100FF000A55ABD4F11960D90BC91A02DB583A48329
:1010000014962D913C9115973783268314962D9134
:101010003C911597E9019B838A8315969C938E9347
:10102000149796899D9DD0011124A55ABD4FB38771
:10103000A2878C918F5F8C93E0915201F0915301C4
:101040008689891710F4BB24B394E0912C02F091A7
:101050002D02808181116BCF10931E0200931D021F
:10106000CECE80915C0190915D01019690935D01DF
:1010700080935C01D1E0ED1AF10809F08DCE109259
:101080005D0110925C0180915E01882309F453CECA
:101090000E94C80581E050CECF93DF93EC010E94FF
:1010A000F50360E0CE010E9438050E94840681119C
:1010B00002C00E94C805DF91CF9108950F920FB62C
:1010C000F8940F921F9211242F923F924F925F92A9
:1010D0006F927F928F929F92AF92BF92CF92DF9248
:1010E000EF92FF920F931F932F933F934F935F9332
:1010F0006F937F938F939F93AF93BF93CF93DF9320
:10110000EF93FF93A0915201B09153010DB60D9250
:101110000EB60D9213BE80915F018111F9C08091CE
:101120001B0290911C02019690931C0280931B025B
:10113000009781F520912C0230912D0240912A02D6
:1011400050912B0250932D0240932C0230932B028E
:1011500020932A02209163012F5F20936301E09185
:101160002C02F0912D022081211107C02FEF3FEFBB
:1011700030931E0220931D020DC0E0912C02F091CD
:101180002D020580F681E02D2081318130931E02F1
:1011900020931D0220911D0230911E028217930799
:1011A00010F420E0A1C020E039E0D32EE0912C0221
:1011B000F0912D023081311107C08FEF9FEF909396
:1011C0001E0280931D0290C0E0912C02F0912D022E
:1011D0000580F681E02D0680F781E02D4281538164
:1011E0008417950728F450931E0240931D027CC07B
:1011F000A285B3854481558166817781EA017D832B
:101200006C8366817781EB015B834A83AF014E5F1C
:101210005F4F11960D911C9112970417150721F439
:1012200012967C936E931197138612863C913150DF
:101230003C93A489B5891097F9F066857785008974
:101240001189EB011D830C8300891189E8017B83DF
:101250006A831196ED90FC901297BF01645F7F4FF7
:10126000E616F70621F412961C930E931197158A31
:10127000148A3C9131503C93A68930917F023A17F1
:1012800010F4A0937F02DA9ED0011124A55ABD4F1D
:1012900011960D90BC91A02DB583A48314966D91E9
:1012A0007C9115977783668314966D917C91159741
:1012B000EB015B834A8315965C934E9314974689A2
:1012C0004D9DD0011124A55ABD4FB387A2873C91F3
:1012D0003F5F3C93E0915201F091530136893417FE
:1012E00008F064CF21E062CFE0915201F091530108
:1012F000E689D9E0ED9FF0011124E55AFD4F808188
:10130000823008F021E080915E0181110EC00AC098
:1013100080915C0190915D01019690935D018093B5
:101320005C0168C0222309F465C080915F018823B5
:1013300021F081E080935E015DC010925E01A0917A
:101340005201B0915301E0915201F09153012D915E
:101350003C918789908D82179307A8F08091520164
:10136000909153018091520190915301259A2D9AA9
:101370002FEF87EA91E6215080409040E1F700C0CE
:1013800000001D9AF5CF20917F0289E001C0215015
:10139000422F50E0849FF001859FF00D1124E55A03
:1013A000FD4F9081992399F3A181B28112966D919D
:1013B0007C9172836183289FC0011124825A9D4FC2
:1013C0006817790721F4858196819283818389E06A
:1013D000849FF001859FF00D1124E55AFD4F018097
:1013E000F281E02D86819781909353018093520181
:1013F00020937F02A0915201B0915301CD91CDBFB6
:10140000DD91DEBFFF91EF91DF91CF91BF91AF9161
:101410009F918F917F916F915F914F913F912F910C
:101420001F910F91FF90EF90DF90CF90BF90AF9002
:101430009F908F907F906F905F904F903F902F90F4
:101440001F900F900FBE0F900895CF93DF930097DA
:1014500051F0EC010E94F503CE010E94000FDF91D4
:10146000CF910C948406DF91CF910895CF93DF93B1
:1014700000D000D01F92CDB7DEB7E0910302F0910B
:1014800004021081F12CE12C112329F00580F68152
:10149000E02DE080F1800E94F5030E94EB036C01D7
:1014A0008091610190916201C816D90608F085C04B
:1014B0000E941A05D0926201C09261010E948406C6
:1014C0000091190210911A020FB6F8940F92D801E8
:1014D0005A96FC905A97FF2009F430C15C964C91C3
:1014E0005C97442301F150E016968D919C911797DB
:1014F000840F951F17969C938E93169714962D9193
:101500003C9115978217930738F08D919C91119714
:1015100017969C938E931697F80166817781CE017A
:1015200001960E948F0FFA94D8015A96FC925A970E
:1015300018968C91882339F0C80108960E944603BA
:1015400081110E94C8050F900FBED980D7FCB8CF7B
:101550000C811D81D8011A968D919C91892B21F0C7
:10156000C80102960E9448040E94EB037C0180910E
:10157000610190916201E816F90610F40E941A05C3
:10158000F0926201E0926101EFEFED0DE93008F0B9
:1015900097CF0E2E000CFF0BEC52F54FD801529650
:1015A0008C9152970C94890F570B570B9A0B820B07
:1015B000940B570B570B9A0B820BD0926201C0927F
:1015C0006101112351F0CE14DF0470F00E948406F3
:1015D000B601C7010E94F00473CFE0910102F091BF
:1015E0000202808161E0811160E000911902109196
:1015F0001A020FB6F8940F92D8015D968C915D9700
:101600008F3F11F45D961C92F801868D8F3F09F48F
:10161000168E0F900FBED8015A968C915A97811151
:101620003CC05296ED91FC91A0915201B0915301B2
:101630001F96FC93EE931E97A0915201B091530117
:101640008481958151969C938E93509780915201FD
:1016500090915301A481B5810C9613969C938E931F
:10166000129780915201909153010C969583848337
:10167000E0915201F0915301C8014196958B848B02
:10168000F80181898F5F818BC7018C199D096623C1
:1016900011F08FEF9FEF0E943805C8010E940604E9
:1016A0000E94840681110CCF0E94C80509CF816079
:1016B000F801828BCA80DB80648575856C0D7D1D89
:1016C0009601A701C8010E94A204882309F4F8CE5C
:1016D000D80152968C91529782FF10C01C966D9142
:1016E0007C916C0D7D1DA701C8010E94CC04D8011E
:1016F0005096ED91FC91C8010995E2CE8E7FF801DC
:10170000828BF5CF816052968C9352976A817B8150
:101710001D967C936E931C976E0D7F1D9701A701FC
:10172000C8010E94A204CCCE81FD04C0C8010E9461
:10173000250AC6CE8E7FF801828BC2CE0F900FBED7
:101740009CCE00E010E08091600181110CC080917E
:101750005B02823010F00E94C8050115110599F353
:101760000E946601F0CF0FB6F8940F92E0913C0210
:10177000F0913D02C681D781CE0102960E944804B5
:101780008091820281508093820280916001815019
:10179000809360010F900FBE8F89988D0E94250A5B
:1017A000CE010E94250ACFCFCF93DF93EC010E9498
:1017B000F503CE010E94640EEC010E94840620977E
:1017C00069F4259A2D9A2FEF80E792E0215080400E
:1017D0009040E1F700C000001D9AF5CFCE01DF91E7
:1017E000CF9108957F928F929F92AF92BF92CF92A6
:1017F000DF92EF92FF920F931F93CF93DF93982E78
:10180000A92E762E872E7A01B22ECA010E94D40B01
:101810006C01892B09F4EAC088E290E00E94D40BA5
:10182000EC01892B09F4DFC088E2DE011D928A9564
:10183000E9F7D88ECF8AA70165EA70E0C6010E9459
:10184000980FB1E0EB1AF108EF89F88DEE0DFF1D4E
:10185000672D782DCE0149969B01285F3F4FDB0114
:101860004D91BD01DC014D93CD01AB0141505109BA
:10187000DA014C91442319F06217730781F718A21B
:10188000BE8AB9A21B861A861D8A1C8AD987C88778
:1018900084E090E08B1991099D878C87DB8BCA8B44
:1018A0009082DF011197AC9211971C92119780E8FA
:1018B0008C9311971C9257971C9211971C92B39777
:1018C000F983E883F801D183C0830FB6F8940F92AF
:1018D000809182028F5F8093820280915201909169
:1018E0005301892B09F091C0D0935301C093520149
:1018F00080918202813081F58BE592E00E94BA05E9
:1019000084E692E00E94BA058DE692E00E94BA0554
:1019100086E792E00E94BA0582E592E00E94BA054D
:1019200089E492E00E94BA0580E492E00E94BA0540
:1019300087E392E00E94BA058EE292E00E94BA0527
:1019400082E592E090932D0280932C0289E492E04C
:1019500090932B0280932A02809180028F5F809364
:101960008002AE8980917F028A1710F4A0937F02D3
:1019700029E02A9FD0011124A55ABD4F11960D9040
:10198000BC91A02DBD83AC8314968D919C9115972D
:101990009F838E831496ED91FC911597CE0102964C
:1019A0009383828315969C938E931497EE89E29F7E
:1019B000F0011124E55AFD4FFB87EA8780818F5F94
:1019C00080830F900FBE80918102882351F0E091B7
:1019D0005201F091530196898E89981710F40E9454
:1019E000C80581E004C0C6010E94250A8FEFDF917F
:1019F000CF911F910F91FF90EF90DF90CF90BF900C
:101A0000AF909F908F907F90089580918102811177
:101A1000A3CFE0915201F091530196898E898917E5
:101A200008F49ACFD0935301C093520195CF0E94EE
:101A30005E081895789484B5826084BD84B5816011
:101A400084BD85B5826085BD85B5816085BD809189
:101A50006E00816080936E00109281008091810001
:101A600082608093810080918100816080938100F9
:101A7000809180008160809380008091B1008460BB
:101A80008093B1008091B00081608093B00080911C
:101A90007A00846080937A0080917A0082608093DB
:101AA0007A0080917A00816080937A0080917A0038
:101AB000806880937A001092C100209105013091D6
:101AC00006018FEF98E0821B930B909302018093A5
:101AD00001010E9424020FE112E020E040EC50E0FE
:101AE00064E471E081EA9BE00E94F20B813009F02E
:101AF000B3C00FB6F8940F928091190290911A0218
:101B0000892B09F04FC08EE092E00E94BA0585E073
:101B100092E00E94BA058EE092E0909304028093D6
:101B2000030285E092E0909302028093010281E536
:101B300090E00E94D40BEC01009781F14F969983BD
:101B400088838AE08B8F85E08C8F0FB6F8940F9294
:101B5000888199812B8D4C8DBC01249F600D711D56
:101B600011247D836C831A8E9B838A832150330BCF
:101B7000429FB001439F700D1124860F971F9F83D2
:101B80008E838FEF8D8F8E8FCE0108960E94BA05BF
:101B9000CE0141960E94BA050F900FBED0931A0253
:101BA000C09319020F900FBE8091190290911A02F2
:101BB000892B09F451C007E112E023E045E550E02C
:101BC00069E471E086E39AE00E94F20B813009F04B
:101BD00043C0F8942FEF3FEF30931E0220931D0275
:101BE0008093810210921C0210921B02A89588E13A
:101BF00090EC0FB6F894A895809360000FBE909378
:101C00006000A0915201B0915301CD91CDBFDD9103
:101C1000DEBFFF91EF91DF91CF91BF91AF919F9187
:101C20008F917F916F915F914F913F912F911F9174
:101C30000F91FF90EF90DF90CF90BF90AF909F906B
:101C40008F907F906F905F904F903F902F901F905C
:101C50000F900FBE0F900895809100010E94240202
:101C6000C0E0D0E02097F1F30E946601FBCFE4E6EC
:101C7000F1E01382128288EE93E0A0E0B0E084836A
:101C80009583A683B7838BE091E09183808385EC75
:101C900090E09587848784EC90E09787868780EC36
:101CA00090E0918B808B81EC90E0938B828B82EC27
:101CB00090E0958B848B86EC90E0978B868B118ED1
:101CC000128E138E148E08950F931F93CF93DF936C
:101CD0008230910510F482E090E0E0918502F0916D
:101CE000860230E020E0B0E0A0E0309799F42115C2
:101CF000310509F44AC0281B390B24303105D8F5C9
:101D00008A819B816115710589F1FB01938382832F
:101D1000FE0111C04081518102811381481759078A
:101D2000E0F04817590799F4109761F012960C9358
:101D3000129713961C933296CF01DF91CF911F918A
:101D40000F9108950093850210938602F4CF211518
:101D5000310551F04217530738F0A901DB019A0110
:101D6000BD01DF01F801C1CFEF01F9CF90938602E9
:101D700080938502CDCFFE01E20FF31F81939193F3
:101D80002250310939832883D7CF209183023091A3
:101D90008402232B41F420910301309104013093FC
:101DA00084022093830220910101309102012115C8
:101DB000310541F42DB73EB7409105015091060120
:101DC000241B350BE0918302F0918402E217F307A4
:101DD000A0F42E1B3F0B2817390778F0AC014E5F9B
:101DE0005F4F2417350748F04E0F5F1F5093840252
:101DF00040938302819391939FCFF0E0E0E09CCFEA
:101E0000CF93DF930097E9F0FC013297138212829F
:101E1000A0918502B0918602ED0130E020E010979C
:101E2000A1F420813181820F931F20918302309190
:101E300084022817390709F061C0F0938402E09307
:101E40008302DF91CF910895EA01CE17DF07E8F50D
:101E50004A815B819E0141155105B1F7E901FB8380
:101E6000EA8349915991C40FD51FEC17FD0761F41E
:101E7000808191810296840F951FE901998388835F
:101E8000828193819B838A83F0E0E0E012968D91BA
:101E90009C9113970097B9F52D913C911197CD0125
:101EA0000296820F931F209183023091840228179B
:101EB000390739F6309751F5109286021092850253
:101EC000B0938402A0938302BCCFD383C2834081AA
:101ED0005181840F951FC817D90761F44E5F5F4F7A
:101EE00088819981480F591F518340838A819B8142
:101EF000938382832115310509F0B0CFF0938602D8
:101F0000E09385029ECFFD01DC01C0CF13821282D7
:101F1000D7CFEE0FFF1F0590F491E02D0994FB0140
:101F2000DC0102C001900D9241505040D8F7089555
:101F3000DC0101C06D9341505040E0F70895F894E2
:101F4000FFCF03000087028000000000009501F22F
:101F5000001F01E20150012E0142015461736B2008
:101F600031005461736B2032005461736B20330075
:101F7000595554495741592049532044412042451D
:101F80005354000D0A0049444C4500546D722053CF
:041F90007663000074
:107E0000112484B714BE81FFF0D085E080938100F7
:107E100082E08093C00088E18093C10086E0809377
:107E2000C20080E18093C4008EE0C9D0259A86E02C
:107E300020E33CEF91E0309385002093840096BBD3
:107E4000B09BFECF1D9AA8958150A9F7CC24DD24C4
:107E500088248394B5E0AB2EA1E19A2EF3E0BF2EE7
:107E6000A2D0813461F49FD0082FAFD0023811F036
:107E7000013811F484E001C083E08DD089C08234E0
:107E800011F484E103C0853419F485E0A6D080C0E4
:107E9000853579F488D0E82EFF2485D0082F10E0AE
:107EA000102F00270E291F29000F111F8ED06801E7
:107EB0006FC0863521F484E090D080E0DECF843638
:107EC00009F040C070D06FD0082F6DD080E0C81688
:107ED00080E7D80618F4F601B7BEE895C0E0D1E017
:107EE00062D089930C17E1F7F0E0CF16F0E7DF06D8
:107EF00018F0F601B7BEE89568D007B600FCFDCFD4
:107F0000A601A0E0B1E02C9130E011968C91119780
:107F100090E0982F8827822B932B1296FA010C0160
:107F200087BEE89511244E5F5F4FF1E0A038BF0790
:107F300051F7F601A7BEE89507B600FCFDCF97BE46
:107F4000E89526C08437B1F42ED02DD0F82E2BD052
:107F50003CD0F601EF2C8F010F5F1F4F84911BD097
:107F6000EA94F801C1F70894C11CD11CFA94CF0C13
:107F7000D11C0EC0853739F428D08EE10CD085E9AC
:107F80000AD08FE07ACF813511F488E018D01DD067
:107F900080E101D065CF982F8091C00085FFFCCF94
:107FA0009093C60008958091C00087FFFCCF809118
:107FB000C00084FD01C0A8958091C6000895E0E648
:107FC000F0E098E1908380830895EDDF803219F02E
:107FD00088E0F5DFFFCF84E1DECF1F93182FE3DFCA
:107FE0001150E9F7F2DF1F91089580E0E8DFEE27F6
:047FF000FF270994CA
:027FFE00040479
:00000001FF
